S01300004131303130325F56312E302E7372656398
S11300000C9434000C9449000C9449000C9449005D
S11300100C9449000C9449000C9449000C94490038
S11300200C9449000C9449000C9449000C94490028
S11300300C9449000C9449000C9449000C94490018
S11300400C9449000C9449000C9449000C94490008
S11300500C9449000C9449000C9449000C944900F8
S11300600C9449000C94490011241FBECFEFD8E032
S1130070DEBFCDBF11E0A0E0B1E0E6E6F2E002C0F1
S113008005900D92A030B107D9F70E944B000C9453
S113009031010C9400000E94FB0081E00E94B40036
S11300A0FCCF8AB1806F8AB98AB18E608AB908950B
S11300B0CF93DF9300D000D0CDB7DEB719821A8278
S11300C01B821C8290E018C0692F70E047E050E06A
S11300D0461B570B282F30E002C0359527954A95CB
S11300E0E2F720FF08C0E1E0F0E0EC0FFD1FE60FAF
S11300F0F71F21E020839F5F943030F38BB18F7022
S11301008BB96BB14C8170E8479FF00111249B813E
S113011080E4989FA00111249A8170E2979F900136
S11301201124998170E1979FC00111244E2B242B37
S1130130822B862B8BB98BB188608BB98FE396E0C9
S11301400197F1F700C000008BB1877F8BB98FE373
S113015096E00197F1F700C000000F900F900F9008
S11301600F90DF91CF910895CF93C82F8BB18B7FE0
S11301708BB98BB1877F8BB984E090E00C2E02C0E1
S1130180959587950A94E2F70E9458008C2F8F70FA
S11301900E945800CF9108958AB18F778AB98BB1A4
S11301A08B7F8BB98BB182608BB98BB188608BB933
S11301B085E08A95F1F7000099B18BB1877F8BB9FF
S11301C085E08A95F1F700008BB188608BB985E0F2
S11301D08A95F1F700008BB1877F8BB985E08A950A
S11301E0F1F7000099230CF38BB18D7F8BB98AB1A1
S11301F080688AB908950E9451008BB18B7F8BB9B6
S11302008BB1877F8BB98FE59AEE0197F1F700C028
S1130210000083E00E9458008FE090E40197F1F71A
S113022000C0000083E00E9458008FE891E001972D
S1130230F1F700C0000083E00E94580082E00E94B1
S113024058000E94CC0088E20E94B4000E94CC00B6
S11302508FE00E94B4000E94CC0081E00E94B400B0
S10902600895F894FFCF9D
S9030000FC
